{
  "_format": "hh-sol-artifact-1",
  "contractName": "GreenToken",
  "sourceName": "contracts/GreenToken.sol",
  "abi": [
    {
      "inputs": [],
      "stateMutability": "nonpayable",
      "type": "constructor"
    },
    {
      "inputs": [
        {
          "internalType": "address",
          "name": "target",
          "type": "address"
        }
      ],
      "name": "AddressEmptyCode",
      "type": "error"
    },
    {
      "inputs": [
        {
          "internalType": "address",
          "name": "implementation",
          "type": "address"
        }
      ],
      "name": "ERC1967InvalidImplementation",
      "type": "error"
    },
    {
      "inputs": [],
      "name": "ERC1967NonPayable",
      "type": "error"
    },
    {
      "inputs": [
        {
          "internalType": "address",
          "name": "spender",
          "type": "address"
        },
        {
          "internalType": "uint256",
          "name": "allowance",
          "type": "uint256"
        },
        {
          "internalType": "uint256",
          "name": "needed",
          "type": "uint256"
        }
      ],
      "name": "ERC20InsufficientAllowance",
      "type": "error"
    },
    {
      "inputs": [
        {
          "internalType": "address",
          "name": "sender",
          "type": "address"
        },
        {
          "internalType": "uint256",
          "name": "balance",
          "type": "uint256"
        },
        {
          "internalType": "uint256",
          "name": "needed",
          "type": "uint256"
        }
      ],
      "name": "ERC20InsufficientBalance",
      "type": "error"
    },
    {
      "inputs": [
        {
          "internalType": "address",
          "name": "approver",
          "type": "address"
        }
      ],
      "name": "ERC20InvalidApprover",
      "type": "error"
    },
    {
      "inputs": [
        {
          "internalType": "address",
          "name": "receiver",
          "type": "address"
        }
      ],
      "name": "ERC20InvalidReceiver",
      "type": "error"
    },
    {
      "inputs": [
        {
          "internalType": "address",
          "name": "sender",
          "type": "address"
        }
      ],
      "name": "ERC20InvalidSender",
      "type": "error"
    },
    {
      "inputs": [
        {
          "internalType": "address",
          "name": "spender",
          "type": "address"
        }
      ],
      "name": "ERC20InvalidSpender",
      "type": "error"
    },
    {
      "inputs": [],
      "name": "FailedCall",
      "type": "error"
    },
    {
      "inputs": [],
      "name": "InvalidInitialization",
      "type": "error"
    },
    {
      "inputs": [],
      "name": "NotInitializing",
      "type": "error"
    },
    {
      "inputs": [
        {
          "internalType": "address",
          "name": "owner",
          "type": "address"
        }
      ],
      "name": "OwnableInvalidOwner",
      "type": "error"
    },
    {
      "inputs": [
        {
          "internalType": "address",
          "name": "account",
          "type": "address"
        }
      ],
      "name": "OwnableUnauthorizedAccount",
      "type": "error"
    },
    {
      "inputs": [],
      "name": "UUPSUnauthorizedCallContext",
      "type": "error"
    },
    {
      "inputs": [
        {
          "internalType": "bytes32",
          "name": "slot",
          "type": "bytes32"
        }
      ],
      "name": "UUPSUnsupportedProxiableUUID",
      "type": "error"
    },
    {
      "anonymous": false,
      "inputs": [
        {
          "indexed": true,
          "internalType": "address",
          "name": "owner",
          "type": "address"
        },
        {
          "indexed": true,
          "internalType": "address",
          "name": "spender",
          "type": "address"
        },
        {
          "indexed": false,
          "internalType": "uint256",
          "name": "value",
          "type": "uint256"
        }
      ],
      "name": "Approval",
      "type": "event"
    },
    {
      "anonymous": false,
      "inputs": [
        {
          "indexed": false,
          "internalType": "uint64",
          "name": "version",
          "type": "uint64"
        }
      ],
      "name": "Initialized",
      "type": "event"
    },
    {
      "anonymous": false,
      "inputs": [
        {
          "indexed": true,
          "internalType": "address",
          "name": "previousOwner",
          "type": "address"
        },
        {
          "indexed": true,
          "internalType": "address",
          "name": "newOwner",
          "type": "address"
        }
      ],
      "name": "OwnershipTransferred",
      "type": "event"
    },
    {
      "anonymous": false,
      "inputs": [
        {
          "indexed": true,
          "internalType": "address",
          "name": "user",
          "type": "address"
        },
        {
          "indexed": false,
          "internalType": "uint256",
          "name": "amount",
          "type": "uint256"
        },
        {
          "indexed": false,
          "internalType": "string",
          "name": "reward",
          "type": "string"
        }
      ],
      "name": "RedeemedVoucher",
      "type": "event"
    },
    {
      "anonymous": false,
      "inputs": [
        {
          "indexed": true,
          "internalType": "address",
          "name": "from",
          "type": "address"
        },
        {
          "indexed": true,
          "internalType": "address",
          "name": "to",
          "type": "address"
        },
        {
          "indexed": false,
          "internalType": "uint256",
          "name": "value",
          "type": "uint256"
        }
      ],
      "name": "Transfer",
      "type": "event"
    },
    {
      "anonymous": false,
      "inputs": [
        {
          "indexed": true,
          "internalType": "address",
          "name": "implementation",
          "type": "address"
        }
      ],
      "name": "Upgraded",
      "type": "event"
    },
    {
      "inputs": [],
      "name": "UPGRADE_INTERFACE_VERSION",
      "outputs": [
        {
          "internalType": "string",
          "name": "",
          "type": "string"
        }
      ],
      "stateMutability": "view",
      "type": "function"
    },
    {
      "inputs": [
        {
          "internalType": "address",
          "name": "owner",
          "type": "address"
        },
        {
          "internalType": "address",
          "name": "spender",
          "type": "address"
        }
      ],
      "name": "allowance",
      "outputs": [
        {
          "internalType": "uint256",
          "name": "",
          "type": "uint256"
        }
      ],
      "stateMutability": "view",
      "type": "function"
    },
    {
      "inputs": [
        {
          "internalType": "address",
          "name": "spender",
          "type": "address"
        },
        {
          "internalType": "uint256",
          "name": "value",
          "type": "uint256"
        }
      ],
      "name": "approve",
      "outputs": [
        {
          "internalType": "bool",
          "name": "",
          "type": "bool"
        }
      ],
      "stateMutability": "nonpayable",
      "type": "function"
    },
    {
      "inputs": [
        {
          "internalType": "address",
          "name": "account",
          "type": "address"
        }
      ],
      "name": "balanceOf",
      "outputs": [
        {
          "internalType": "uint256",
          "name": "",
          "type": "uint256"
        }
      ],
      "stateMutability": "view",
      "type": "function"
    },
    {
      "inputs": [
        {
          "internalType": "uint256",
          "name": "value",
          "type": "uint256"
        }
      ],
      "name": "burn",
      "outputs": [],
      "stateMutability": "nonpayable",
      "type": "function"
    },
    {
      "inputs": [
        {
          "internalType": "address",
          "name": "account",
          "type": "address"
        },
        {
          "internalType": "uint256",
          "name": "value",
          "type": "uint256"
        }
      ],
      "name": "burnFrom",
      "outputs": [],
      "stateMutability": "nonpayable",
      "type": "function"
    },
    {
      "inputs": [],
      "name": "decimals",
      "outputs": [
        {
          "internalType": "uint8",
          "name": "",
          "type": "uint8"
        }
      ],
      "stateMutability": "view",
      "type": "function"
    },
    {
      "inputs": [
        {
          "internalType": "address",
          "name": "initialOwner",
          "type": "address"
        }
      ],
      "name": "initialize",
      "outputs": [],
      "stateMutability": "nonpayable",
      "type": "function"
    },
    {
      "inputs": [
        {
          "internalType": "address",
          "name": "to",
          "type": "address"
        },
        {
          "internalType": "uint256",
          "name": "amount",
          "type": "uint256"
        }
      ],
      "name": "mint",
      "outputs": [],
      "stateMutability": "nonpayable",
      "type": "function"
    },
    {
      "inputs": [],
      "name": "name",
      "outputs": [
        {
          "internalType": "string",
          "name": "",
          "type": "string"
        }
      ],
      "stateMutability": "view",
      "type": "function"
    },
    {
      "inputs": [],
      "name": "owner",
      "outputs": [
        {
          "internalType": "address",
          "name": "",
          "type": "address"
        }
      ],
      "stateMutability": "view",
      "type": "function"
    },
    {
      "inputs": [],
      "name": "proxiableUUID",
      "outputs": [
        {
          "internalType": "bytes32",
          "name": "",
          "type": "bytes32"
        }
      ],
      "stateMutability": "view",
      "type": "function"
    },
    {
      "inputs": [
        {
          "internalType": "uint256",
          "name": "amount",
          "type": "uint256"
        },
        {
          "internalType": "string",
          "name": "reward",
          "type": "string"
        }
      ],
      "name": "redeem",
      "outputs": [],
      "stateMutability": "nonpayable",
      "type": "function"
    },
    {
      "inputs": [],
      "name": "renounceOwnership",
      "outputs": [],
      "stateMutability": "nonpayable",
      "type": "function"
    },
    {
      "inputs": [],
      "name": "symbol",
      "outputs": [
        {
          "internalType": "string",
          "name": "",
          "type": "string"
        }
      ],
      "stateMutability": "view",
      "type": "function"
    },
    {
      "inputs": [],
      "name": "totalSupply",
      "outputs": [
        {
          "internalType": "uint256",
          "name": "",
          "type": "uint256"
        }
      ],
      "stateMutability": "view",
      "type": "function"
    },
    {
      "inputs": [
        {
          "internalType": "address",
          "name": "to",
          "type": "address"
        },
        {
          "internalType": "uint256",
          "name": "value",
          "type": "uint256"
        }
      ],
      "name": "transfer",
      "outputs": [
        {
          "internalType": "bool",
          "name": "",
          "type": "bool"
        }
      ],
      "stateMutability": "nonpayable",
      "type": "function"
    },
    {
      "inputs": [
        {
          "internalType": "address",
          "name": "from",
          "type": "address"
        },
        {
          "internalType": "address",
          "name": "to",
          "type": "address"
        },
        {
          "internalType": "uint256",
          "name": "value",
          "type": "uint256"
        }
      ],
      "name": "transferFrom",
      "outputs": [
        {
          "internalType": "bool",
          "name": "",
          "type": "bool"
        }
      ],
      "stateMutability": "nonpayable",
      "type": "function"
    },
    {
      "inputs": [
        {
          "internalType": "address",
          "name": "newOwner",
          "type": "address"
        }
      ],
      "name": "transferOwnership",
      "outputs": [],
      "stateMutability": "nonpayable",
      "type": "function"
    },
    {
      "inputs": [
        {
          "internalType": "address",
          "name": "newImplementation",
          "type": "address"
        },
        {
          "internalType": "bytes",
          "name": "data",
          "type": "bytes"
        }
      ],
      "name": "upgradeToAndCall",
      "outputs": [],
      "stateMutability": "payable",
      "type": "function"
    }
  ],
  "bytecode": "0x60a06040523073ffffffffffffffffffffffffffffffffffffffff1660809073ffffffffffffffffffffffffffffffffffffffff1681525034801561004357600080fd5b5061005261005760201b60201c565b6101de565b600061006761015b60201b60201c565b90508060000160089054906101000a900460ff16156100b2576040517ff92ee8a900000000000000000000000000000000000000000000000000000000815260040160405180910390fd5b67ffffffffffffffff80168160000160009054906101000a900467ffffffffffffffff1667ffffffffffffffff16146101585767ffffffffffffffff8160000160006101000a81548167ffffffffffffffff021916908367ffffffffffffffff1602179055507fc7f505b2f371ae2175ee4913f4499e1f2633a7b5936321eed1cdaeb6115181d267ffffffffffffffff60405161014f91906101c3565b60405180910390a15b50565b60008061016c61017560201b60201c565b90508091505090565b60007ff0c57e16840df040f15088dc2f81fe391c3923bec73e23a9662efc9c229c6a0060001b905090565b600067ffffffffffffffff82169050919050565b6101bd816101a0565b82525050565b60006020820190506101d860008301846101b4565b92915050565b60805161267361020760003960008181610eea01528181610f3f01526110fa01526126736000f3fe60806040526004361061011f5760003560e01c806370a08231116100a0578063a9059cbb11610064578063a9059cbb146103b4578063ad3cb1cc146103f1578063c4d66de81461041c578063dd62ed3e14610445578063f2fde38b146104825761011f565b806370a08231146102e1578063715018a61461031e57806379cc6790146103355780638da5cb5b1461035e57806395d89b41146103895761011f565b8063313ce567116100e7578063313ce5671461021d57806340c10f191461024857806342966c68146102715780634f1ef2861461029a57806352d1902d146102b65761011f565b806306fdde0314610124578063095ea7b31461014f57806318160ddd1461018c57806323b872dd146101b757806324b76fd5146101f4575b600080fd5b34801561013057600080fd5b506101396104ab565b6040516101469190611c08565b60405180910390f35b34801561015b57600080fd5b5061017660048036038101906101719190611cd2565b61054c565b6040516101839190611d2d565b60405180910390f35b34801561019857600080fd5b506101a161056f565b6040516101ae9190611d57565b60405180910390f35b3480156101c357600080fd5b506101de60048036038101906101d99190611d72565b610587565b6040516101eb9190611d2d565b60405180910390f35b34801561020057600080fd5b5061021b60048036038101906102169190611e2a565b6105b6565b005b34801561022957600080fd5b5061023261061f565b60405161023f9190611ea6565b60405180910390f35b34801561025457600080fd5b5061026f600480360381019061026a9190611cd2565b610628565b005b34801561027d57600080fd5b5061029860048036038101906102939190611ec1565b61063e565b005b6102b460048036038101906102af919061201e565b610652565b005b3480156102c257600080fd5b506102cb610671565b6040516102d89190612093565b60405180910390f35b3480156102ed57600080fd5b50610308600480360381019061030391906120ae565b6106a4565b6040516103159190611d57565b60405180910390f35b34801561032a57600080fd5b506103336106fb565b005b34801561034157600080fd5b5061035c60048036038101906103579190611cd2565b61070f565b005b34801561036a57600080fd5b5061037361072f565b60405161038091906120ea565b60405180910390f35b34801561039557600080fd5b5061039e610767565b6040516103ab9190611c08565b60405180910390f35b3480156103c057600080fd5b506103db60048036038101906103d69190611cd2565b610808565b6040516103e89190611d2d565b60405180910390f35b3480156103fd57600080fd5b5061040661082b565b6040516104139190611c08565b60405180910390f35b34801561042857600080fd5b50610443600480360381019061043e91906120ae565b610864565b005b34801561045157600080fd5b5061046c60048036038101906104679190612105565b610a77565b6040516104799190611d57565b60405180910390f35b34801561048e57600080fd5b506104a960048036038101906104a491906120ae565b610b0c565b005b606060006104b7610b92565b90508060030180546104c890612174565b80601f01602080910402602001604051908101604052809291908181526020018280546104f490612174565b80156105415780601f1061051657610100808354040283529160200191610541565b820191906000526020600020905b81548152906001019060200180831161052457829003601f168201915b505050505091505090565b600080610557610bba565b9050610564818585610bc2565b600191505092915050565b60008061057a610b92565b9050806002015491505090565b600080610592610bba565b905061059f858285610bd4565b6105aa858585610c69565b60019150509392505050565b6105c76105c161072f565b84610808565b503373ffffffffffffffffffffffffffffffffffffffff167f3feff53b13b475cde4bf280271dacee87daf9613064217b40462eb5486078aff848484604051610612939291906121d2565b60405180910390a2505050565b60006012905090565b610630610d5d565b61063a8282610de4565b5050565b61064f610649610bba565b82610e66565b50565b61065a610ee8565b61066382610fce565b61066d8282610fd9565b5050565b600061067b6110f8565b7f360894a13ba1a3210667c828492db98dca3e2076cc3735a920a3ca505d382bbc60001b905090565b6000806106af610b92565b90508060000160008473ffffffffffffffffffffffffffffffffffffffff1673ffffffffffffffffffffffffffffffffffffffff16815260200190815260200160002054915050919050565b610703610d5d565b61070d600061117f565b565b6107218261071b610bba565b83610bd4565b61072b8282610e66565b5050565b60008061073a611256565b90508060000160009054906101000a900473ffffffffffffffffffffffffffffffffffffffff1691505090565b60606000610773610b92565b905080600401805461078490612174565b80601f01602080910402602001604051908101604052809291908181526020018280546107b090612174565b80156107fd5780601f106107d2576101008083540402835291602001916107fd565b820191906000526020600020905b8154815290600101906020018083116107e057829003601f168201915b505050505091505090565b600080610813610bba565b9050610820818585610c69565b600191505092915050565b6040518060400160405280600581526020017f352e302e3000000000000000000000000000000000000000000000000000000081525081565b600061086e61127e565b905060008160000160089054906101000a900460ff1615905060008260000160009054906101000a900467ffffffffffffffff1690506000808267ffffffffffffffff161480156108bc5750825b9050600060018367ffffffffffffffff161480156108f1575060003073ffffffffffffffffffffffffffffffffffffffff163b145b9050811580156108ff575080155b15610936576040517ff92ee8a900000000000000000000000000000000000000000000000000000000815260040160405180910390fd5b60018560000160006101000a81548167ffffffffffffffff021916908367ffffffffffffffff16021790555083156109865760018560000160086101000a81548160ff0219169083151502179055505b6109fa6040518060400160405280600a81526020017f477265656e546f6b656e000000000000000000000000000000000000000000008152506040518060400160405280600281526020017f4754000000000000000000000000000000000000000000000000000000000000815250611292565b610a026112a8565b610a0b866112b2565b610a136112c6565b8315610a6f5760008560000160086101000a81548160ff0219169083151502179055507fc7f505b2f371ae2175ee4913f4499e1f2633a7b5936321eed1cdaeb6115181d26001604051610a66919061225d565b60405180910390a15b505050505050565b600080610a82610b92565b90508060010160008573ffffffffffffffffffffffffffffffffffffffff1673ffffffffffffffffffffffffffffffffffffffff16815260200190815260200160002060008473ffffffffffffffffffffffffffffffffffffffff1673ffffffffffffffffffffffffffffffffffffffff1681526020019081526020016000205491505092915050565b610b14610d5d565b600073ffffffffffffffffffffffffffffffffffffffff168173ffffffffffffffffffffffffffffffffffffffff1603610b865760006040517f1e4fbdf7000000000000000000000000000000000000000000000000000000008152600401610b7d91906120ea565b60405180910390fd5b610b8f8161117f565b50565b60007f52c63247e1f47db19d5ce0460030c497f067ca4cebf71ba98eeadabe20bace00905090565b600033905090565b610bcf83838360016112d0565b505050565b6000610be08484610a77565b90507fffffffffffffffffffffffffffffffffffffffffffffffffffffffffffffffff811015610c635781811015610c53578281836040517ffb8f41b2000000000000000000000000000000000000000000000000000000008152600401610c4a93929190612278565b60405180910390fd5b610c62848484840360006112d0565b5b50505050565b600073ffffffffffffffffffffffffffffffffffffffff168373ffffffffffffffffffffffffffffffffffffffff1603610cdb5760006040517f96c6fd1e000000000000000000000000000000000000000000000000000000008152600401610cd291906120ea565b60405180910390fd5b600073ffffffffffffffffffffffffffffffffffffffff168273ffffffffffffffffffffffffffffffffffffffff1603610d4d5760006040517fec442f05000000000000000000000000000000000000000000000000000000008152600401610d4491906120ea565b60405180910390fd5b610d588383836114b6565b505050565b610d65610bba565b73ffffffffffffffffffffffffffffffffffffffff16610d8361072f565b73ffffffffffffffffffffffffffffffffffffffff1614610de257610da6610bba565b6040517f118cdaa7000000000000000000000000000000000000000000000000000000008152600401610dd991906120ea565b60405180910390fd5b565b600073ffffffffffffffffffffffffffffffffffffffff168273ffffffffffffffffffffffffffffffffffffffff1603610e565760006040517fec442f05000000000000000000000000000000000000000000000000000000008152600401610e4d91906120ea565b60405180910390fd5b610e62600083836114b6565b5050565b600073ffffffffffffffffffffffffffffffffffffffff168273ffffffffffffffffffffffffffffffffffffffff1603610ed85760006040517f96c6fd1e000000000000000000000000000000000000000000000000000000008152600401610ecf91906120ea565b60405180910390fd5b610ee4826000836114b6565b5050565b7f000000000000000000000000000000000000000000000000000000000000000073ffffffffffffffffffffffffffffffffffffffff163073ffffffffffffffffffffffffffffffffffffffff161480610f9557507f000000000000000000000000000000000000000000000000000000000000000073ffffffffffffffffffffffffffffffffffffffff16610f7c6116f5565b73ffffffffffffffffffffffffffffffffffffffff1614155b15610fcc576040517fe07c8dba00000000000000000000000000000000000000000000000000000000815260040160405180910390fd5b565b610fd6610d5d565b50565b8173ffffffffffffffffffffffffffffffffffffffff166352d1902d6040518163ffffffff1660e01b8152600401602060405180830381865afa92505050801561104157506040513d601f19601f8201168201806040525081019061103e91906122db565b60015b61108257816040517f4c9c8ce300000000000000000000000000000000000000000000000000000000815260040161107991906120ea565b60405180910390fd5b7f360894a13ba1a3210667c828492db98dca3e2076cc3735a920a3ca505d382bbc60001b81146110e957806040517faa1d49a40000000000000000000000000000000000000000000000000000000081526004016110e09190612093565b60405180910390fd5b6110f3838361174c565b505050565b7f000000000000000000000000000000000000000000000000000000000000000073ffffffffffffffffffffffffffffffffffffffff163073ffffffffffffffffffffffffffffffffffffffff161461117d576040517fe07c8dba00000000000000000000000000000000000000000000000000000000815260040160405180910390fd5b565b6000611189611256565b905060008160000160009054906101000a900473ffffffffffffffffffffffffffffffffffffffff169050828260000160006101000a81548173ffffffffffffffffffffffffffffffffffffffff021916908373ffffffffffffffffffffffffffffffffffffffff1602179055508273ffffffffffffffffffffffffffffffffffffffff168173ffffffffffffffffffffffffffffffffffffffff167f8be0079c531659141344cd1fd0a4f28419497f9722a3daafe3b4186f6b6457e060405160405180910390a3505050565b60007f9016d09d72d40fdae2fd8ceac6b6234c7706214fd39c1cd1e609a0528c199300905090565b6000806112896117bf565b90508091505090565b61129a6117ea565b6112a4828261182a565b5050565b6112b06117ea565b565b6112ba6117ea565b6112c381611867565b50565b6112ce6117ea565b565b60006112da610b92565b9050600073ffffffffffffffffffffffffffffffffffffffff168573ffffffffffffffffffffffffffffffffffffffff160361134e5760006040517fe602df0500000000000000000000000000000000000000000000000000000000815260040161134591906120ea565b60405180910390fd5b600073ffffffffffffffffffffffffffffffffffffffff168473ffffffffffffffffffffffffffffffffffffffff16036113c05760006040517f94280d620000000000000000000000000000000000000000000000000000000081526004016113b791906120ea565b60405180910390fd5b828160010160008773ffffffffffffffffffffffffffffffffffffffff1673ffffffffffffffffffffffffffffffffffffffff16815260200190815260200160002060008673ffffffffffffffffffffffffffffffffffffffff1673ffffffffffffffffffffffffffffffffffffffff1681526020019081526020016000208190555081156114af578373ffffffffffffffffffffffffffffffffffffffff168573ffffffffffffffffffffffffffffffffffffffff167f8c5be1e5ebec7d5bd14f71427d1e84f3dd0314c0f7b2291e5b200ac8c7c3b925856040516114a69190611d57565b60405180910390a35b5050505050565b60006114c0610b92565b9050600073ffffffffffffffffffffffffffffffffffffffff168473ffffffffffffffffffffffffffffffffffffffff1603611516578181600201600082825461150a9190612337565b925050819055506115ef565b60008160000160008673ffffffffffffffffffffffffffffffffffffffff1673ffffffffffffffffffffffffffffffffffffffff168152602001908152602001600020549050828110156115a5578481846040517fe450d38c00000000000000000000000000000000000000000000000000000000815260040161159c93929190612278565b60405180910390fd5b8281038260000160008773ffffffffffffffffffffffffffffffffffffffff1673ffffffffffffffffffffffffffffffffffffffff16815260200190815260200160002081905550505b600073ffffffffffffffffffffffffffffffffffffffff168373ffffffffffffffffffffffffffffffffffffffff160361163a5781816002016000828254039250508190555061168a565b818160000160008573ffffffffffffffffffffffffffffffffffffffff1673ffffffffffffffffffffffffffffffffffffffff168152602001908152602001600020600082825401925050819055505b8273ffffffffffffffffffffffffffffffffffffffff168473ffffffffffffffffffffffffffffffffffffffff167fddf252ad1be2c89b69c2b068fc378daa952ba7f163c4a11628f55a4df523b3ef846040516116e79190611d57565b60405180910390a350505050565b60006117237f360894a13ba1a3210667c828492db98dca3e2076cc3735a920a3ca505d382bbc60001b6118ed565b60000160009054906101000a900473ffffffffffffffffffffffffffffffffffffffff16905090565b611755826118f7565b8173ffffffffffffffffffffffffffffffffffffffff167fbc7cd75a20ee27fd9adebab32041f755214dbc6bffa90cc0225b39da2e5c2d3b60405160405180910390a26000815111156117b2576117ac82826119c4565b506117bb565b6117ba611a48565b5b5050565b60007ff0c57e16840df040f15088dc2f81fe391c3923bec73e23a9662efc9c229c6a0060001b905090565b6117f2611a85565b611828576040517fd7e6bcf800000000000000000000000000000000000000000000000000000000815260040160405180910390fd5b565b6118326117ea565b600061183c610b92565b90508281600301908161184f919061250d565b5081816004019081611861919061250d565b50505050565b61186f6117ea565b600073ffffffffffffffffffffffffffffffffffffffff168173ffffffffffffffffffffffffffffffffffffffff16036118e15760006040517f1e4fbdf70000000000000000000000000000000000000000000000000000000081526004016118d891906120ea565b60405180910390fd5b6118ea8161117f565b50565b6000819050919050565b60008173ffffffffffffffffffffffffffffffffffffffff163b0361195357806040517f4c9c8ce300000000000000000000000000000000000000000000000000000000815260040161194a91906120ea565b60405180910390fd5b806119807f360894a13ba1a3210667c828492db98dca3e2076cc3735a920a3ca505d382bbc60001b6118ed565b60000160006101000a81548173ffffffffffffffffffffffffffffffffffffffff021916908373ffffffffffffffffffffffffffffffffffffffff16021790555050565b60606000808473ffffffffffffffffffffffffffffffffffffffff16846040516119ee9190612626565b600060405180830381855af49150503d8060008114611a29576040519150601f19603f3d011682016040523d82523d6000602084013e611a2e565b606091505b5091509150611a3e858383611aa5565b9250505092915050565b6000341115611a83576040517fb398979f00000000000000000000000000000000000000000000000000000000815260040160405180910390fd5b565b6000611a8f61127e565b60000160089054906101000a900460ff16905090565b606082611aba57611ab582611b34565b611b2c565b60008251148015611ae2575060008473ffffffffffffffffffffffffffffffffffffffff163b145b15611b2457836040517f9996b315000000000000000000000000000000000000000000000000000000008152600401611b1b91906120ea565b60405180910390fd5b819050611b2d565b5b9392505050565b600081511115611b4657805160208201fd5b6040517fd6bda27500000000000000000000000000000000000000000000000000000000815260040160405180910390fd5b600081519050919050565b600082825260208201905092915050565b60005b83811015611bb2578082015181840152602081019050611b97565b60008484015250505050565b6000601f19601f8301169050919050565b6000611bda82611b78565b611be48185611b83565b9350611bf4818560208601611b94565b611bfd81611bbe565b840191505092915050565b60006020820190508181036000830152611c228184611bcf565b905092915050565b6000604051905090565b600080fd5b600080fd5b600073ffffffffffffffffffffffffffffffffffffffff82169050919050565b6000611c6982611c3e565b9050919050565b611c7981611c5e565b8114611c8457600080fd5b50565b600081359050611c9681611c70565b92915050565b6000819050919050565b611caf81611c9c565b8114611cba57600080fd5b50565b600081359050611ccc81611ca6565b92915050565b60008060408385031215611ce957611ce8611c34565b5b6000611cf785828601611c87565b9250506020611d0885828601611cbd565b9150509250929050565b60008115159050919050565b611d2781611d12565b82525050565b6000602082019050611d426000830184611d1e565b92915050565b611d5181611c9c565b82525050565b6000602082019050611d6c6000830184611d48565b92915050565b600080600060608486031215611d8b57611d8a611c34565b5b6000611d9986828701611c87565b9350506020611daa86828701611c87565b9250506040611dbb86828701611cbd565b9150509250925092565b600080fd5b600080fd5b600080fd5b60008083601f840112611dea57611de9611dc5565b5b8235905067ffffffffffffffff811115611e0757611e06611dca565b5b602083019150836001820283011115611e2357611e22611dcf565b5b9250929050565b600080600060408486031215611e4357611e42611c34565b5b6000611e5186828701611cbd565b935050602084013567ffffffffffffffff811115611e7257611e71611c39565b5b611e7e86828701611dd4565b92509250509250925092565b600060ff82169050919050565b611ea081611e8a565b82525050565b6000602082019050611ebb6000830184611e97565b92915050565b600060208284031215611ed757611ed6611c34565b5b6000611ee584828501611cbd565b91505092915050565b600080fd5b7f4e487b7100000000000000000000000000000000000000000000000000000000600052604160045260246000fd5b611f2b82611bbe565b810181811067ffffffffffffffff82111715611f4a57611f49611ef3565b5b80604052505050565b6000611f5d611c2a565b9050611f698282611f22565b919050565b600067ffffffffffffffff821115611f8957611f88611ef3565b5b611f9282611bbe565b9050602081019050919050565b82818337600083830152505050565b6000611fc1611fbc84611f6e565b611f53565b905082815260208101848484011115611fdd57611fdc611eee565b5b611fe8848285611f9f565b509392505050565b600082601f83011261200557612004611dc5565b5b8135612015848260208601611fae565b91505092915050565b6000806040838503121561203557612034611c34565b5b600061204385828601611c87565b925050602083013567ffffffffffffffff81111561206457612063611c39565b5b61207085828601611ff0565b9150509250929050565b6000819050919050565b61208d8161207a565b82525050565b60006020820190506120a86000830184612084565b92915050565b6000602082840312156120c4576120c3611c34565b5b60006120d284828501611c87565b91505092915050565b6120e481611c5e565b82525050565b60006020820190506120ff60008301846120db565b92915050565b6000806040838503121561211c5761211b611c34565b5b600061212a85828601611c87565b925050602061213b85828601611c87565b9150509250929050565b7f4e487b7100000000000000000000000000000000000000000000000000000000600052602260045260246000fd5b6000600282049050600182168061218c57607f821691505b60208210810361219f5761219e612145565b5b50919050565b60006121b18385611b83565b93506121be838584611f9f565b6121c783611bbe565b840190509392505050565b60006040820190506121e76000830186611d48565b81810360208301526121fa8184866121a5565b9050949350505050565b6000819050919050565b600067ffffffffffffffff82169050919050565b6000819050919050565b600061224761224261223d84612204565b612222565b61220e565b9050919050565b6122578161222c565b82525050565b6000602082019050612272600083018461224e565b92915050565b600060608201905061228d60008301866120db565b61229a6020830185611d48565b6122a76040830184611d48565b949350505050565b6122b88161207a565b81146122c357600080fd5b50565b6000815190506122d5816122af565b92915050565b6000602082840312156122f1576122f0611c34565b5b60006122ff848285016122c6565b91505092915050565b7f4e487b7100000000000000000000000000000000000000000000000000000000600052601160045260246000fd5b600061234282611c9c565b915061234d83611c9c565b925082820190508082111561236557612364612308565b5b92915050565b60008190508160005260206000209050919050565b60006020601f8301049050919050565b600082821b905092915050565b6000600883026123cd7fffffffffffffffffffffffffffffffffffffffffffffffffffffffffffffffff82612390565b6123d78683612390565b95508019841693508086168417925050509392505050565b600061240a61240561240084611c9c565b612222565b611c9c565b9050919050565b6000819050919050565b612424836123ef565b61243861243082612411565b84845461239d565b825550505050565b600090565b61244d612440565b61245881848461241b565b505050565b5b8181101561247c57612471600082612445565b60018101905061245e565b5050565b601f8211156124c1576124928161236b565b61249b84612380565b810160208510156124aa578190505b6124be6124b685612380565b83018261245d565b50505b505050565b600082821c905092915050565b60006124e4600019846008026124c6565b1980831691505092915050565b60006124fd83836124d3565b9150826002028217905092915050565b61251682611b78565b67ffffffffffffffff81111561252f5761252e611ef3565b5b6125398254612174565b612544828285612480565b600060209050601f8311600181146125775760008415612565578287015190505b61256f85826124f1565b8655506125d7565b601f1984166125858661236b565b60005b828110156125ad57848901518255600182019150602085019450602081019050612588565b868310156125ca57848901516125c6601f8916826124d3565b8355505b6001600288020188555050505b505050505050565b600081519050919050565b600081905092915050565b6000612600826125df565b61260a81856125ea565b935061261a818560208601611b94565b80840191505092915050565b600061263282846125f5565b91508190509291505056fea264697066735822122022b345c3d4cf868648f9db3b0bb9ae48fcbb1b1a4b2ee59bf4008ab609abb06b64736f6c634300081b0033",
  "linkReferences": {},
  "deployedLinkReferences": {}
}